:100000000C9458000C9480000C9480000C94800098
:100010000C9480000C9480000C9480000C94800060
:100020000C9480000C9480000C9480000C94800050
:100030000C9480000C9480000C9480000C94800040
:100040000C946A040C9480000C9480000C94800042
:100050000C9480000C9480000C9480000C94800020
:100060000C94B4040C9480000000000025002800CB
:100070002B00040404040404040402020202020229
:10008000030303030303010204081020408001025C
:1000900004081020010204081020000000080002DB
:1000A0000100000304070000000000000000D30569
:1000B00011241FBECFEFD8E0DEBFCDBF11E0A0E01E
:1000C000B1E0EAE2FFE002C005900D92AA33B10769
:1000D000D9F722E0AAE3B1E001C01D92A731B2072F
:1000E000E1F710E0C8E5D0E004C02197FE010E94CE
:1000F0008D07C735D107C9F70E94F5050C94930702
:100100000C94000008950895AF92BF92CF92DF92B1
:10011000EF92FF920F931F93CF93DF936C017B01BC
:100120008B01040F151FEB015E01AE18BF08C0174D
:10013000D10759F06991D601ED91FC910190F081C0
:10014000E02DC6010995892B79F7C501DF91CF9183
:100150001F910F91FF90EF90DF90CF90BF90AF90E5
:10016000089590E0FC01E656FF4F2491FC01EA5708
:10017000FF4F3491FC01EE58FF4FE491EE23C9F09C
:10018000222339F0233001F1A8F4213019F1223073
:1001900029F1F0E0EE0FFF1FE859FF4FA591B49150
:1001A0008FB7F894EC91611126C030953E233C93B3
:1001B0008FBF08952730A9F02830C9F0243049F7BF
:1001C000809180008F7D03C0809180008F77809325
:1001D0008000DFCF84B58F7784BDDBCF84B58F7D82
:1001E000FBCF8091B0008F778093B000D2CF809109
:1001F000B0008F7DF9CF3E2BDACF3FB7F8948091D6
:10020000F1019091F201A091F301B091F40126B5B2
:10021000A89B05C02F3F19F00196A11DB11D3FBF3E
:10022000BA2FA92F982F8827BC01CD01620F711D0D
:10023000811D911D42E0660F771F881F991F4A9507
:10024000D1F708958F929F92AF92BF92CF92DF9293
:10025000EF92FF926B017C010E94FD004B015C015B
:10026000C114D104E104F104B9F00E94FD00681941
:1002700079098A099B09683E73408105910580F3DD
:1002800021E0C21AD108E108F10888EE880E83E067
:10029000981EA11CB11CE4CFFF90EF90DF90CF908F
:1002A000BF90AF909F908F9008952091A201260F4C
:1002B0003327331F21323105ECF42091C601FC01B4
:1002C00090E080E0243069F082E00895A091A201DE
:1002D0002191AC014E575E4FA40FB52FB11D2C9349
:1002E0000196861798F38091A201680F6093A2018E
:1002F00080E0089581E008951092C60181E0809326
:10030000C8011092C70161E082E10E94B10061E082
:1003100083E10E94B100E9EBF0E080818E7F808371
:1003200080818D7F808388E48093B80085E480930A
:10033000BC000895CF93DF9391E0909381018823CF
:10034000B9F0C091B800D091BA008091BC008A7B0E
:100350008093BC0060E082E10E94B10060E083E134
:100360000E94B1000E947C01D093BA00C093B800F3
:10037000DF91CF9108950895E091FC018091FB01F8
:10038000E81730F4F0E0E45AFE4F808190E00895E1
:100390008FEF9FEF08959091FC018091FB012FEF6B
:1003A0003FEF981748F4E92FF0E0E45AFE4F208120
:1003B00030E09F5F9093FC01C90108958091FB019B
:1003C0009091FC01891B990B0895CF92DF92EF92D7
:1003D000FF920F931F93CF93DF937C01CB018A0190
:1003E00020915B01222389F0EB016B01C40ED51E25
:1003F000CC15DD0569F06991D701ED91FC91019073
:10040000F081E02DC7010995F3CF642F0E945501BB
:10041000C801DF91CF911F910F91FF90EF90DF9076
:10042000CF900895CF93DF931F92CDB7DEB7698346
:1004300020915B012223F9F02091F901203258F03C
:1004400021E030E0FC013383228390E080E00F90D4
:10045000DF91CF9108958091FA01E82FF0E0E55CFB
:10046000FE4F998190838F5F8093FA018093F90109
:1004700081E090E0ECCF61E0CE0101960E94550151
:10048000F7CFCF92DF92EF92FF920F931F93CF930C
:10049000DF93FC01C48121E020935B01C0933A010A
:1004A0001092FA011092F9018385682B8FEF91E089
:1004B0000E941202D091F901D13208F092C00E943C
:1004C000FD006B017C018091C601811165C082E055
:1004D0008093C60181E08093C8018FEF8093C501AE
:1004E0001092EA01D093E901ABE3B1E0E9ECF1E06D
:1004F00080E0D81385C01092EB018091EB01CC0F06
:10050000C82BC093EB018091C701813009F07CC0FA
:100510001092C7010E94FD006B017C018091EB01EC
:100520008093BB0080917D0190917E01A0917F011D
:10053000B0918001892B8A2B8B2B99F00E94FD00B2
:1005400000917D0110917E0120917F013091800109
:100550006C197D098E099F090617170728073907A7
:10056000E0F18091BC0083FDD9CF85EC8093BC0085
:100570000E94FD006B017C018091C601823009F46C
:1005800045C08091C5018F3F61F18091C5018032E6
:1005900041F18091C50125C080917D0190917E013E
:1005A000A0917F01B0918001892B8A2B8B2B09F4BC
:1005B0008ACF0E94FD0000917D0110917E01209163
:1005C0007F01309180016C197D098E099F09061702
:1005D00017072807390708F076CF80917C010E9421
:1005E0009A011092FA011092F90110925B01DF91C9
:1005F000CF911F910F91FF90EF90DF90CF900895D2
:100600009D9191938F5F75CF85EEB0CF80917D01E5
:1006100090917E01A0917F01B0918001892B8A2B5E
:100620008B2B09F4A9CF0E94FD0000917D01109150
:100630007E0120917F01309180016C197D098E0926
:100640009F09061717072807390708F095CFC5CF68
:10065000089590E080E008958F929F92AF92BF92AC
:100660000F931F93CF93DF93CDB7DEB7A1970FB64C
:10067000F894DEBF0FBECDBF19A2423008F44AE0A5
:100680008E010F5D1F4F842E912CB12CA12CA50142
:1006900094010E946B07E62FB901CA01EA3044F5C4
:1006A000E05DD801EE938D01232B242B252B79F7C8
:1006B00090E080E0109769F0FD0101900020E9F7DB
:1006C0003197AF014A1B5B0BBD018BE092E00E94AA
:1006D0008400A1960FB6F894DEBF0FBECDBFDF91A8
:1006E000CF911F910F91BF90AF909F908F900895E1
:1006F000E95CD7CF40E150E068E271E08BE092E046
:100700000C9484000F931F93CF938C01C62F0E94EB
:1007100041026C2F6460C8010E9441026C2F6B7F04
:10072000C8010E94410283EC90E00197F1F7CF915C
:100730001F910F9108950F931F93CF93DF938C0117
:10074000D62FC42F607F642B0E94820380E1D89F44
:10075000B00111246C2BC801DF91CF911F910F9133
:100760000C94820340E0682F8BE092E00C949B0392
:10077000CF93DF93CDB7DEB728970FB6F894DEBFDF
:100780000FBECDBF98E0E2E0F1E0DE0111960190EE
:100790000D929A95E1F790911402961708F46FEF75
:1007A00070E0660F771F21E030E02C0F3D1F620FD5
:1007B000731FFB019081890F806828960FB6F8940B
:1007C000DEBF0FBECDBFDF91CF910C94B203CF93AC
:1007D000DF93C2E0D0E080911102982F9260909355
:1007E00011028A600E94B20368EC70E080E090E041
:1007F0000E942201809111028D7F809311028860F6
:100800000E94B20368EC70E080E090E00E94220158
:10081000219719F4DF91CF910895C1E0D0E0DBCFAB
:1008200041E00E949B0381E090E00895CF92DF9227
:10083000EF92FF926B017C0141E06DE28BE092E070
:100840000E949B0366277727CB016C197D098E09CF
:100850009F094AE00E942C030196FF90EF90DF90E1
:10086000CF90089585ED8093BC0080917D0190919B
:100870007E01A0917F01B09180010796A11DB11D5D
:1008800023E0B695A795979587952A95D1F720915E
:10089000BC0024FD03C01092C601089540917D0163
:1008A00050917E0160917F0170918001452B462B14
:1008B000472B69F30097A105B10541F025E32A957F
:1008C000F1F700000197A109B109E1CF80917C0106
:1008D0000C949A011F920F920FB60F9211242F932E
:1008E0003F938F939F93AF93BF938091ED0190912E
:1008F000EE01A091EF01B091F0013091EC0123E005
:10090000230F2D3758F50196A11DB11D2093EC0141
:100910008093ED019093EE01A093EF01B093F0016D
:100920008091F1019091F201A091F301B091F40155
:100930000196A11DB11D8093F1019093F201A09346
:10094000F301B093F401BF91AF919F918F913F91CB
:100950002F910F900FBE0F901F90189526E8230F30
:100960000296A11DB11DD2CF1F920F920FB60F920A
:1009700011242F933F934F935F936F937F938F93A4
:100980009F93AF93BF93EF93FF938091B900887FBC
:10099000803609F44AC0F0F5883209F4A7C018F58A
:1009A000803109F49BC0B8F4882309F4F9C0883079
:1009B00009F494C0FF91EF91BF91AF919F918F91F6
:1009C0007F916F915F914F913F912F910F900FBE4B
:1009D0000F901F901895883109F488C0803251F724
:1009E0008093C50114C0803409F49DC040F4803365
:1009F000B9F38833F9F68093C50185ECB0C0803532
:100A000009F485C0883509F496C0883499F60E94A7
:100A10003204D0CF883909F48CC038F5883729F0F2
:100A200050F4883611F0803729F683E08093C601B0
:100A30001092C40157C0883809F47BC0803919F07E
:100A4000803809F0B7CF8091C401803208F071C0BE
:100A5000E091C40181E08E0F8093C4018091BB00BE
:100A6000F0E0EC55FE4F80833DC0803B39F0E0F470
:100A7000803A09F479C0883A09F09CCF84E08093E9
:100A8000C6011092A3011092A201E091F701F0912A
:100A9000F80109958091A20181110FC081E0809336
:100AA000A2011092820109C0803C09F4A6CF883CC3
:100AB00009F4A3CF883B09F07DCFE091A30181E049
:100AC0008E0F8093A301F0E0EE57FE4F808180935C
:100AD000BB009091A3018091A20129C08091EB01FC
:100AE0008093BB0085EC8093BC0064CF9091EA01B9
:100AF0008091E901981758F5E091EA0181E08E0FA5
:100B00008093EA01F0E0E753FE4F8081E9CFE09166
:100B1000EA0181E08E0F8093EA018091BB00F0E052
:100B2000E753FE4F80839091EA018091E901981785
:100B3000C8F285E8D8CFE091EA0181E08E0F80937A
:100B4000EA018091BB00F0E0E753FE4F8083809183
:100B5000C80181115CCF81E08093C70184EA809352
:100B6000BC001092C60126CF85EC8093BC00109289
:100B7000C6018091C401803230F4E091C401F0E0FC
:100B8000EC55FE4F10826091C40170E0E091F501D8
:100B9000F091F60184EA91E009951092C4010ACF20
:100BA0001092C50134CFEFEFF1E01382128288EE8C
:100BB00093E0A0E0B0E084839583A683B7838EE0C2
:100BC00091E091838083EBE0F2E01382128280E275
:100BD00091E09183808387E2848380E1808782E053
:100BE0008187128688E083870895789484B582602F
:100BF00084BD84B5816084BD85B5826085BD85B5C1
:100C0000816085BD80916E00816080936E0010923E
:100C100081008091810082608093810080918100B9
:100C2000816080938100809180008160809380004A
:100C30008091B10084608093B1008091B0008160A8
:100C40008093B00080917A00846080937A008091D4
:100C50007A00826080937A0080917A00816080932C
:100C60007A0080917A00806880937A001092C100A7
:100C70001092FC011092FB011092FA011092F901FE
:100C80000E947C0182E890E09093F8018093F70144
:100C900083E890E09093F6018093F50110921002A2
:100CA00080911402823018F098E090931002909195
:100CB0001502992339F0813029F480911002846063
:100CC0008093100262E370E080E090E00E942201D5
:100CD000609116028BE092E00E94410268EE73E0A0
:100CE00080E090E00E94220160E38BE092E00E94AD
:100CF0008203CBE4D6E4CE010197F1F760E38BE009
:100D000092E00E9482032197F1F760E38BE092E08A
:100D10000E94820383E592E00197F1F760E28BE0A5
:100D200092E00E9482038091100280620E94B203CE
:100D300084E0809311028CE00E94B20381E00E9463
:100D4000B203CBE3DFE1CE010197F1F782E08093BC
:100D5000120286E00E94B20382E00E94B203219751
:100D6000F1F761E08FE00E94B803809112028D7F5D
:100D70008093120284600E94B2030E947A038091E1
:100D80001202982F92609093120286600E94B20322
:100D90000BE31FE180E0E82E80E0F82E8091000157
:100DA0009091010102970CF070C060E083E00E9416
:100DB000B803C091FD01D091FE01CA30D1050CF0FD
:100DC00056C00E94E703BE010D2E000C880B990B44
:100DD000D7FF45C00E941604C091FD01D091FE01CD
:100DE0002196D093FE01C093FD016CE271E080E09A
:100DF00090E00E9422012A97E1F660E08CE00E94D8
:100E0000B803809112028D7F8093120284600E9449
:100E1000B2031092FE011092FD01C091FD01D0912C
:100E2000FE01CA30D1051CF50E94E703BE010D2E5C
:100E3000000C880B990BD7FF16C00E9416048091F6
:100E4000FD019091FE0101969093FE018093FD01BA
:100E50006CE271E080E090E00E942201DECF4AE087
:100E60000E942C03B9CF4AE00E942C03E8CF1092D5
:100E7000FE011092FD018091000190910101019607
:100E8000909301018093000189CF81E00E94B20319
:100E9000C8010197F1F760ED77E080E090E00E94F3
:100EA0002201109201011092000180911202982FEC
:100EB00092609093120286600E94B20361E080E02B
:100EC0000E94B8030E947A03E114F10409F466CF8A
:100ED0000E94000063CFA1E21A2EAA1BBB1BFD01DA
:100EE0000DC0AA1FBB1FEE1FFF1FA217B307E40709
:100EF000F50720F0A21BB30BE40BF50B661F771F61
:100F0000881F991F1A9469F7609570958095909540
:100F10009B01AC01BD01CF010895EE0FFF1F0590AD
:0A0F2000F491E02D0994F894FFCF3E
:100F2A0001000000400014005400000000001202FA
:100F3A00E5012903BB01DE01CB01BC010000000071
:100F4A0010048400290328034E756D6265727320AC
:0A0F5A004261636B7761726400006E
:00000001FF
